:100000000C9462000C948A000C948A000C948A0070
:100010000C948A000C948A000C948A000C948A0038
:100020000C948A000C948A000C948A000C948A0028
:100030000C948A000C948A000C948A000C948A0018
:100040000C9478060C948A000C94E8060C94C20672
:100050000C948A000C948A000C948A000C948A00F8
:100060000C948A000C948A000000000023002600F3
:10007000290000000000240027002A0000000000E2
:10008000250028002B0004040404040404040202D4
:100090000202020203030303030301020408102007
:1000A0004080010204081020010204081020000012
:1000B0000008000201000003040700000000000027
:1000C00000005F0711241FBECFEFD8E0DEBFCDBF19
:1000D00012E0A0E0B1E0E2E0F0E202C005900D9293
:1000E000A234B107D9F723E0A2E4B2E001C01D9227
:1000F000AF37B207E1F710E0C2E6D0E004C02197C5
:10010000FE010E94F20FC136D107C9F70E9408080C
:100110000C94FF0F0C9400000F931F93CF93DF9369
:10012000C0914A03EBE4F3E0CD3211F0EAE4F3E0EE
:100130008F0120E030E0A901D801DD918D0180ED33
:100140008D0F8A3090F4AAE0B0E00E945B0D2D2F55
:10015000DD0F330B440B550B260F371F481F591F5C
:100160002053310941095109E7CFA4E6B0E00E94CC
:100170005B0DAB01BC01DF01819190ED980F9A30CE
:10018000D0F38E3259F511968C91119790ED980F0E
:100190009A3020F5082E000C990BC0972AE0289F72
:1001A0008001299F100D1124012E000C220B330B0E
:1001B000400F511F621F731F12968C9190ED980F84
:1001C0009A3060F4082E000C990BC097092E000C91
:1001D000AA0BBB0B480F591F6A1F7B1FCD3239F486
:1001E00070956095509541955F4F6F4F7F4FCB0154
:1001F000BA01DF91CF911F910F9108954F925F92B5
:100200006F927F928F929F92AF92BF92CF92DF9226
:10021000EF92FF921F93CF93DF93CAE4D3E0FE01E6
:10022000C12CD12C7601119180ED810F8A30A8F478
:10023000AAE0B0E0A70196010E945B0DC12E110F4C
:10024000DD08EE08FF08C60ED71EE81EF91E80E383
:10025000C81AD108E108F108E6CFC701B60124E6C3
:1002600030E040E050E00E946E0D9B01AC0160EA7E
:1002700076E881E090E00E94E20F4B015C019E0174
:10028000899190ED980F9A30D0F38E3221F5E901E3
:10029000219680E1482E87E2582E612C712CA9917D
:1002A00080ED8A0F8A30B8F40A2E000CBB0BD09771
:1002B000A30192010E94660D860E971EA81EB91E0C
:1002C000C301B2012AE030E040E050E00E946E0D30
:1002D00029013A01E4CFC701B60124E630E040E04D
:1002E00050E00E946E0D60E472E48FE090E00E94A6
:1002F000E20F6B017C01C501B4016D5F7F4F8F4F31
:100300009F4F26E030E040E050E00E946E0DC701B4
:10031000B601620F731F841F951FDF91CF911F914C
:10032000FF90EF90DF90CF90BF90AF909F908F9015
:100330007F906F905F904F90089590E0FC01E255A0
:10034000FF4F2491FC01E656FF4F3491FC01EA5720
:10035000FF4FE491EE23C9F0222339F0233001F15D
:10036000A8F4213019F1223029F1F0E0EE0FFF1F3F
:10037000E458FF4FA591B4918FB7F894EC916111B7
:1003800026C030953E233C938FBF08952730A9F0B7
:100390002830C9F0243049F7809180008F7D03C058
:1003A000809180008F7780938000DFCF84B58F7736
:1003B00084BDDBCF84B58F7DFBCF8091B0008F777C
:1003C0008093B000D2CF8091B0008F7DF9CF3E2BCB
:1003D000DACFCF93DF9390E0FC01E656FF4F2491F4
:1003E0008A579F4FFC0184918823D1F090E0880FB9
:1003F000991FFC01EE58FF4FA591B491FC01E45800
:10040000FF4FC591D49161110EC09FB7F8948C91A4
:10041000E22FE0958E238C932881E223E8839FBF0F
:10042000DF91CF9108958FB7F894EC91E22BEC9384
:100430008FBFF6CFCF93DF93EC0161E083E00E94A2
:10044000E901209731F460E083E0DF91CF910C94D3
:100450009D01CF3FD10511F461E0F6CFE1EBF0E073
:10046000E491E33029F140F4E130B1F0E230D9F029
:10047000C038D1058CF7E7CFE73021F1E83051F1F2
:10048000E430B1F780918000806280938000D09347
:100490008B00C0938A0004C084B5806884BDC7BD4A
:1004A000DF91CF91089584B5806284BDC8BDF8CF37
:1004B00080918000806880938000D0938900C093F1
:1004C0008800EECF8091B00080688093B000C09328
:1004D000B300E6CF8091B00080628093B000C093FB
:1004E000B400DECF3FB7F89480915302909154024C
:1004F000A0915502B091560226B5A89B05C02F3F8A
:1005000019F00196A11DB11D3FBFBA2FA92F982F39
:100510008827BC01CD01620F711D811D911D42E034
:10052000660F771F881F991F4A95D1F708958F92FC
:100530009F92AF92BF92CF92DF92EF92FF924B01C8
:100540005C010E9472026B017C010E9472026C19B4
:100550007D098E099F09683E734081059105A8F3C6
:1005600021E0821A9108A108B10888EEC80E83E044
:10057000D81EE11CF11C81149104A104B10429F7D7
:10058000FF90EF90DF90CF90BF90AF909F908F90B3
:100590000895AF92BF92CF92DF92EF92FF920F93A6
:1005A0001F93CF93DF936C017B018B01040F151F09
:1005B000EB015E01AE18BF08C017D10759F0699171
:1005C000D601ED91FC910190F081E02DC6010995D5
:1005D000892B79F7C501DF91CF911F910F91FF9082
:1005E000EF90DF90CF90BF90AF900895FC01538DB6
:1005F000448D252F30E0842F90E0821B930B5417FD
:1006000010F0CF96089501970895FC01918D828D89
:10061000981761F0A28DAE0FBF2FB11D5D968C9122
:10062000928D9F5F9F73928F90E008958FEF9FEF61
:100630000895FC01918D828D981731F0828DE80F1D
:10064000F11D858D90E008958FEF9FEF0895FC01D7
:10065000918D228D892F90E0805C9F4F821B9109A4
:100660008F739927089587E592E00E94270321E080
:10067000892B09F420E0822F089580E090E0892BF7
:1006800029F00E94330381110C9400000895FC01AD
:10069000A48DA80FB92FB11DA35ABF4F2C91848DE3
:1006A00090E001968F739927848FA689B7892C9340
:1006B000A089B1898C91837080648C93938D848D93
:1006C000981306C00288F389E02D80818F7D808396
:1006D0000895EF92FF920F931F93CF93DF93EC0156
:1006E00081E0888F9B8D8C8D98131AC0E889F989D9
:1006F000808185FF15C09FB7F894EE89FF896083DC
:10070000E889F98980818370806480839FBF81E05C
:1007100090E0DF91CF911F910F91FF90EF9008959E
:10072000F62E0B8D10E00F5F1F4F0F731127E02E79
:100730008C8D8E110CC00FB607FCFACFE889F989B1
:10074000808185FFF5CFCE010E944703F1CFEB8D6D
:10075000EC0FFD2FF11DE35AFF4FF0829FB7F89485
:100760000B8FEA89FB8980818062CFCFCF93DF93A3
:10077000EC01888D8823B9F0AA89BB89E889F989B9
:100780008C9185FD03C0808186FD0DC00FB607FCEE
:10079000F7CF8C9185FFF2CF808185FFEDCFCE0121
:1007A0000E944703E9CFDF91CF910895089590E02B
:1007B00080E00895CF93DF93EC0160E08E810E948A
:1007C0009D0161E08E810E949D0160E08E810E940A
:1007D0009D018BE891E00197F1F7DF91CF910895AA
:1007E000CF92DF92EF92FF920F931F93CF93DF93FD
:1007F0006C017C0187E0E80EF11CD0E0C0E0062F20
:1008000010E0B8010C2E02C0759567950A94E2F7C6
:100810006170F70181917F010E949D012196C43092
:10082000D10579F7C601DF91CF911F910F91FF900C
:10083000EF90DF90CF900C94DA03CF92DF92EF929B
:10084000FF920F931F93CF93DF93EC01F62E642F4B
:100850008C810E949D018D818F3F19F060E00E9484
:100860009D010F2D10E08F8584FF25C06E0187E06C
:10087000C80ED11CF12CE12CB8010E2C02C07595CC
:1008800067950A94E2F76170F60181916F010E9409
:100890009D01FFEFEF1AFF0A88E0E816F10461F707
:1008A000CE01DF91CF911F910F91FF90EF90DF90DC
:1008B000CF900C94DA03B80184E0759567958A951A
:1008C000E1F7CE010E94F0036F2DCE01DF91CF91B1
:1008D0001F910F91FF90EF90DF90CF900C94F00359
:1008E00040E0682F87E693E00C941D0481E00E94AD
:1008F00070048BE39FE10197F1F70895CF93DF93A5
:10090000823029F4909176039860909376038093D7
:100910007A0310927B0380E480937C0380E18093D0
:100920007D0380E580937E0361E080916B030E94EC
:10093000E90180916C038F3F19F061E00E94E901A9
:1009400061E080916D030E94E901C7E6D3E09E015A
:10095000275633408091760384FD0BC084E090E0FD
:1009600021962817390744F461E08E810E94E9013D
:10097000EECF88E090E0F4CF8BE39DE00197F1F7B4
:1009800060E080916B030E949D0160E080916D03A7
:100990000E949D0180916C038F3F19F060E00E94DE
:1009A0009D018091760384FD34C063E087E693E087
:1009B0000E94F003CBE4D6E4CE010197F1F763E0A7
:1009C00087E693E00E94F0032197F1F763E087E662
:1009D00093E00E94F00383E592E00197F1F762E073
:1009E00087E693E00E94F0038091760380620E9484
:1009F000700484E0809377038CE00E9470040E946E
:100A0000760482E08093780386E0DF91CF910C94A6
:100A1000700480620E9470048BE496E40197F1F701
:100A20008091760380620E94700483E592E00197D2
:100A3000F1F78091760380620E947004D5CFE09137
:100A40007A03E23048F4E150F0E0E959FC4F948930
:100A5000890F80680C947004E1E0F6CF41E00E94B9
:100A60001D0481E090E00895FB0101900020E9F76A
:100A70003197AF01461B570BDC01ED91FC910280D1
:100A8000F381E02D09948F929F92AF92BF920F93C2
:100A90001F93CF93DF93CDB7DEB7A1970FB6F8942E
:100AA000DEBF0FBECDBF19A2423008F44AE08E016E
:100AB0000F5D1F4F842E912CB12CA12CA501940108
:100AC0000E946E0DE62FB901CA01EA3004F5E05D1F
:100AD000D801EE938D01232B242B252B79F790E061
:100AE00080E0109729F0BD0187E592E00E9434056F
:100AF000A1960FB6F894DEBF0FBECDBFDF91CF91A8
:100B00001F910F91BF90AF909F908F900895E95CD7
:100B1000DFCFCF93DF93BC0187E592E00E943405DD
:100B2000EC016EE171E087E592E00E9434058C0FE4
:100B30009D1FDF91CF9108954F925F926F927F92A8
:100B40008F929F92AF92BF92CF92DF92EF92FF92DD
:100B50000F931F93CF936B017C01742EAC019B010B
:100B60000E94DD0F61E271E0811126C0460157014C
:100B7000E894B7F82FEF3FEF4FE75FE7C501B40107
:100B80000E94DD0F81110CC02FEF3FEF4FE75FE7B1
:100B9000C501B4010E940C0E65E271E0181664F004
:100BA0002FEF3FEF4FE75FE4C701B6010E946B0FE5
:100BB0001816ACF469E271E087E592E0CF911F91DD
:100BC0000F91FF90EF90DF90CF90BF90AF909F90EC
:100BD0008F907F906F905F904F900C9434052FEF23
:100BE0003FEF4FE75FECC701B6010E940C0E87FD97
:100BF000E1CF20E030E0A901C701B6010E940C0E50
:100C000010E000E087FF0AC06DE287E592E00E94F5
:100C100069038C01F7FAF094F7F8F094C0E060E013
:100C200070E080E09FE37C1641F020E030E040E29D
:100C300051E40E94110ECF5FF6CFA70196010E94EA
:100C4000A00D2B013C010E948A0E4B015C014AE081
:100C50000E9443057C01E00EF11ECC23C1F1C501C9
:100C6000B4010E94B90E9B01AC01C301B2010E9404
:100C70009F0D4B015C016EE287E592E00E946903E3
:100C8000E80EF91EC15018F120E030E040E251E4D6
:100C9000C501B4010E94700F2B013C010E948A0E15
:100CA0004B01B12CA12C4AE0C501B4010E944305BF
:100CB000E80EF91EC501B4010E94B90E9B01AC01FA
:100CC000C301B2010E949F0D4B015C01DBCFC70144
:100CD000CF911F910F91FF90EF90DF90CF90BF9039
:100CE000AF909F908F907F906F905F904F900895FE
:100CF0001F920F920FB60F9211242F933F938F9351
:100D00009F93AF93BF9380914F0290915002A09117
:100D10005102B091520230914E0223E0230F2D3741
:100D200058F50196A11DB11D20934E0280934F02EC
:100D300090935002A0935102B093520280915302BB
:100D400090915402A0915502B09156020196A11DB6
:100D5000B11D8093530290935402A0935502B09317
:100D60005602BF91AF919F918F913F912F910F901C
:100D70000FBE0F901F90189526E8230F0296A11D15
:100D8000B11DD2CF1F920F920FB60F9211242F9345
:100D90003F934F935F936F937F938F939F93AF9303
:100DA000BF93EF93FF9387E592E00E944703FF9183
:100DB000EF91BF91AF919F918F917F916F915F91D3
:100DC0004F913F912F910F900FBE0F901F9018954C
:100DD0001F920F920FB60F9211242F938F939F9310
:100DE000EF93FF93E0916702F09168028081E091B8
:100DF0006D02F0916E0282FD1BC0908180917002A5
:100E00008F5F8F7320917102821741F0E091700221
:100E1000F0E0E95AFD4F958F80937002FF91EF91BA
:100E20009F918F912F910F900FBE0F901F9018954B
:100E30008081F4CFCF92DF92EF92FF920F931F93B6
:100E4000E82FF92F05C0015011092109310961F17D
:100E5000908196239417B9F305C001501109210917
:100E6000310911F1908196239413F7CFC12CD12C25
:100E7000E12CF12C0AC08FEFC81AD80AE80AF80A48
:100E80000C151D052E053F0579F0808186238417FA
:100E900091F36C2D7D2D8E2D9F2D1F910F91FF9025
:100EA000EF90DF90CF90089560E070E080E090E0F8
:100EB0001F910F91FF90EF90DF90CF900895E7E59D
:100EC000F2E01382128288EE93E0A0E0B0E0848327
:100ED0009583A683B78384E091E09183808385EC3A
:100EE00090E09587848784EC90E09787868780ECF4
:100EF00090E0918B808B81EC90E0938B828B82ECE5
:100F000090E0958B848B86EC90E0978B868B118E8E
:100F1000128E138E148EE7E6F3E01382128286E1BE
:100F200091E09183808384E084838FEF858385E0E3
:100F3000868386E0878387E0808788E0818789E0F1
:100F400082871386148615861686178681E00E948E
:100F50007E04E4EFF2E04FEF5FEFBA01408351838C
:100F60006283738310861186128613868FEF99EC45
:100F7000AAE9BBE3808B918BA28BB38B808F918F7F
:100F8000A28FB38F80A391A3A2A3B3A380A791A79D
:100F9000A2A7B3A780AB91ABA2ABB3AB40AF51AFAD
:100FA00062AF73AF8FEF90E090933503809334037B
:100FB000409338035093390360933A0370933B0393
:100FC0004093400350934103609342037093430363
:100FD000109248031092490382E0809359031092C3
:100FE0005A0310925B0310925C0310925D031092FF
:100FF0005E0310925F0310926003109262031092DE
:101000006103109264031092630310924A030895DF
:10101000789484B5826084BD84B5816084BD85B5D3
:10102000826085BD85B5816085BD80916E008160DF
:1010300080936E0010928100809181008260809385
:101040008100809181008160809381008091800087
:101050008160809380008091B10084608093B100B2
:101060008091B00081608093B00080917A008460AC
:1010700080937A0080917A00826080937A008091D8
:101080007A00816080937A0080917A0080688093F2
:101090007A001092C10061E083E00E94E90161E002
:1010A0008AE00E94E90160E08BE00E94E901E091A2
:1010B0006702F091680282E08083E0916302F09120
:1010C00064021082E0916502F09166028FEC8083E9
:1010D00010926F02E0916B02F0916C0286E08083C7
:1010E000E0916902F0916A02808180618083E091E1
:1010F0006902F0916A02808188608083E0916902D0
:10110000F0916A02808180688083E0916902F091A9
:101110006A0280818F7D808382E00E947E040E942B
:1011200076046DE271E087E693E00E94340583E087
:101130000E941F0560E471E087E693E00E94340599
:1011400068EE73E080E090E00E94970244244A94A5
:1011500043E0542E612C712C53E0E52EF12C63E218
:10116000C62ED12C75EA272E70E0372EE1E98E2E9F
:10117000E0E09E2EF0E0AF2EF0E0BF2E8FEF90E08B
:101180000E941A0268EC70E080E090E00E949702F2
:1011900090E080E00E941A020E94760467E471E009
:1011A00087E693E00E94340568EE73E080E090E00B
:1011B0000E94970220E420937C0080917A00806452
:1011C00080937A0080917A0086FDFCCFC0917800F0
:1011D000D09179002FEF30E0DE010E94F80FA301DB
:1011E00092010E943C0DC233D1051CF420E030E096
:1011F000A901C9010E941A0262E370E080E090E058
:101200000E94970260E08AE00E949D01C701019759
:10121000F1F761E08AE00E949D01C6010197F1F7B4
:1012200060E08AE00E949D01F1016491F4018491E3
:10123000E82FF0E0EE0FFF1FE859FF4F85919491E2
:1012400000E412E42FE030E0462F0E941A076115F7
:1012500071058105910529F06F5F7F4F8F4F9F4F7B
:101260009F7095958795779567950E94BB0E2DEC9D
:101270003CEC48EE51E40E94110E0E94830E6093F4
:101280004A0270934B0280934C0290934D02CC3BE8
:10129000D2400CF4B9C365307105810591050CF09D
:1012A000B3C364E670E080E090E00E9497028FEFA5
:1012B00090E00E941A0264EF71E080E090E00E94EA
:1012C00097020E94760467E571E087E693E00E944A
:1012D000340583E00E941F056AE671E087E693E02B
:1012E0000E94340568EE73E080E090E00E9497026F
:1012F00089E791E00E94890564EF71E080E090E069
:101300000E94970283E891E00E94890564EF71E0F2
:1013100080E090E00E9497028CE991E00E948905AC
:101320008FEA91E00E9489056AE187E592E00E94D8
:10133000690368EB7BE080E090E00E949702D2E0D6
:1013400011E00E94760466ED71E087E693E00E946A
:10135000340580E00E941F0569EE71E087E693E0A6
:101360000E94340587E592E00E942703892B09F447
:1013700044C387E592E00E940503C82F80915D0376
:1013800090915E03A0915F03B09160030196A11D4F
:10139000B11D80935D0390935E03A0935F03B093B0
:1013A0006003C43209F408C3E0915B03C5324CF416
:1013B000CA3019F0CD3009F00CC3EF3068F0F12CD1
:1013C000CBC0CA32D1F3CC3209F003C380914803B9
:1013D0008C2780934803F1CF90915A03F0E0E65BAD
:1013E000FC4F1082F0904903FF2009F4A0C1209126
:1013F0004A03822F022E000C990B3FEB320F36303E
:1014000008F021C1C7978295807F90914B03292FC7
:10141000092E000C330B4FEB490F463008F01BC16F
:1014200027533109820F90914803891376C1F090B8
:101430005C03FF2021F28091610390916203019689
:10144000909362038093610380913C0390913D03EC
:10145000A0913E03B0913F038093380390933903EA
:10146000A0933A03B0933B038091440390914503CA
:10147000A0914603B09147038093400390934103AA
:10148000A0934203B093430380915903882309F446
:10149000EBC0813009F060C08091F8029091F902B0
:1014A000A091FA02B091FB028093F4029093F502AE
:1014B000A093F602B093F70280910003909101038C
:1014C000A0910203B09103038093FC029093FD026C
:1014D000A093FE02B093FF0280910803909109034C
:1014E000A0910A03B0910B0380930403909305032A
:1014F000A0930603B093070380911003909111030A
:10150000A0911203B091130380930C0390930D03E9
:10151000A0930E03B0930F038091200390912103B9
:10152000A0912203B091230380931C0390931D0389
:10153000A0931E03B0931F03809128039091290369
:10154000A0912A03B0912B03809324039093250349
:10155000A0932603B093270380915A038F5F809353
:101560005A0310925B0381E0CA3209F080E0809355
:101570004903FF2009F4F6CE8091040390910503FE
:10158000A0910603B091070380934602909347020F
:10159000A0934802B093490280910C0390910D03EF
:1015A000A0910E03B0910F038093420290934302E7
:1015B000A0934402B093450280E092E00E94890526
:1015C00065E172E087E592E00E9434056091460291
:1015D0007091470280914802909149020E94BB0E8F
:1015E0002DEB37E346E855E30E94700F48E00E9478
:1015F0009C056EE171E087E592E00E94340560E2AF
:1016000072E087E592E00E94340560914202709199
:10161000430280914402909145020E94BB0E2DEB43
:1016200037E346E855E30E94700F48E00E949C05AE
:101630006EE171E087E592E00E9434058CE292E071
:101640000E9489058FCE2156263018F487559109BE
:10165000DACEC097D8CE9156963018F42755310976
:10166000E1CE20533109DECE809118039091190309
:10167000A0911A03B0911B03809314039093150358
:10168000A0931603B09317038091F8029091F9028A
:10169000A091FA02B091FB028093F4029093F502BC
:1016A000A093F602B093F70280910803909109038A
:1016B000A0910A03B0910B03809304039093050358
:1016C000A0930603B0930703809110039091110338
:1016D000A0911203B091130380930C0390930D0318
:1016E000A0930E03B0930F038091360390913703BC
:1016F00090933503809334038091300390913103AC
:10170000A0913203B091330380932C0390932D0367
:10171000A0932E03B0932F031FCF8091630390916A
:1017200064030196909364038093630348CE911100
:101730001CC0AAE4B3E044EF51E09D01F90181919E
:101740009F01882309F46CC1FA019191AF018917B7
:10175000A9F3EAEFF1E08D91882309F464C1919136
:101760008917C9F3D0935903F7CEE0915903E230BA
:1017700009F425CE80914A03882309F420CE20E283
:10178000E29FF0011124E92B3197E932F10508F0CD
:10179000E3CEE353F44F0C94F20F130C370C550CBB
:1017A000700C7B0CB50CBC0CC60CD10CAC0AAC0A92
:1017B000AC0AAC0AAC0AAC0AAC0AAC0AAC0AAC0A79
:1017C000AC0AAC0AAC0AAC0AAC0AAC0AAC0AAC0A69
:1017D000AC0AAC0AAC0AAC0AAC0A130C310C370CDC
:1017E000550C700C7B0C960CA10CF60BEAE4F3E0A4
:1017F00020E030E0A901019180ED800F8A3008F0EF
:10180000ABC0AAE0B0E00E945B0D202F000F330BAD
:10181000440B550B260F371F481F591F2053310902
:1018200041095109E8CF0E948C006093F80270933F
:10183000F9028093FA029093FB022FB7F8948091FB
:101840004F0290915002A0915102B09152022FBFCD
:1018500080933C0390933D03A0933E03B0933F03DA
:101860007BCE91E0813409F484C090E082C00E9474
:10187000FE00609308037093090380930A0390931A
:101880000B032FB7F89480914F0290915002A091D2
:101890005102B09152022FBF8093440390934503AD
:1018A000A0934603B093470357CE833509F087CD05
:1018B0008091080390910903A0910A03B0910B0352
:1018C000B095A095909581959F4FAF4FBF4F809356
:1018D000080390930903A0930A03B0930B033CCE33
:1018E0000E94FE0060931003709311038093120313
:1018F0009093130331CE873509F061CD80911003A9
:1019000090911103A0911203B0911303B095A0958B
:10191000909581959F4FAF4FBF4F80931003909349
:101920001103A0931203B093130316CE0E948C00F0
:1019300060932003709321038093220390932303E9
:101940000BCE0E948C006093280370932903809330
:101950002A0390932B0300CE2093000330930103BE
:101960004093020350930303F7CD91E081330CF4CD
:101970007CCF90935C03F0CD8AE493E00E94160D37
:1019800099279093370380933603E6CD0E948C000D
:101990006093300370933103809332039093330349
:1019A000DBCD0E948C006093180370931903809321
:1019B0001A0390931B03D0CD10925B0310925A032D
:1019C00010924803D09359031092490310925C037C
:1019D000C9CCEE3040F481E08E0F80935B03F0E0E1
:1019E000E65BFC4FC083809149038111BBCC8091A1
:1019F0004803C827C0934803B5CC68E873E180E08A
:101A000090E00E9497029DCCA114B10409F4B6CBDA
:101A10000E943303882309F4B1CB0E940000AECBAF
:101A20001093590399CD1092590396CDFC01882744
:101A30009927E89421912032E9F3293010F02E30D3
:101A4000C8F32B3241F02D3239F4689404C00E945F
:101A5000340D820F911D219120532A30C0F31EF4C2
:101A6000909581959F4F08957AE0979F902D879F3D
:101A7000802D910D11240895052E97FB1EF40094DE
:101A80000E94530D57FD07D00E946E0D07FC03D036
:101A90004EF40C94530D50954095309521953F4F41
:101AA0004F4F5F4F089590958095709561957F4F4A
:101AB0008F4F9F4F08950E94900DA59F900DB49F4A
:101AC000900DA49F800D911D11240895B7FF0C94D3
:101AD0005B0D0E945B0D821B930B0895A1E21A2EF1
:101AE000AA1BBB1BFD010DC0AA1FBB1FEE1FFF1FC2
:101AF000A217B307E407F50720F0A21BB30BE40B12
:101B0000F50B661F771F881F991F1A9469F7609558
:101B10007095809590959B01AC01BD01CF01089512
:101B2000A29FB001B39FC001A39F700D811D11241E
:101B3000911DB29F700D811D1124911D0895505863
:101B4000BB27AA270E94B70D0C94310F0E94230FC8
:101B500038F00E942A0F20F039F49F3F19F426F440
:101B60000C94200F0EF4E095E7FB0C941A0FE92F6C
:101B70000E94420F58F3BA1762077307840795074C
:101B800020F079F4A6F50C94640F0EF4E0950B2E7A
:101B9000BA2FA02D0B01B90190010C01CA01A001BF
:101BA0001124FF27591B99F0593F50F4503E68F11A
:101BB0001A16F040A22F232F342F4427585FF3CF5B
:101BC000469537952795A795F0405395C9F77EF42C
:101BD0001F16BA0B620B730B840BBAF09150A1F075
:101BE000FF0FBB1F661F771F881FC2F70EC0BA0FFB
:101BF000621F731F841F48F4879577956795B79583
:101C0000F7959E3F08F0B0CF9395880F08F099277D
:101C1000EE0F9795879508950E94F60E08F481E0DF
:101C200008950E94250E0C94310F0E942A0F58F03F
:101C30000E94230F40F029F45F3F29F00C941A0F03
:101C400051110C94650F0C94200F0E94420F68F301
:101C50009923B1F3552391F3951B550BBB27AA2765
:101C600062177307840738F09F5F5F4F220F331F9F
:101C7000441FAA1FA9F335D00E2E3AF0E0E832D067
:101C800091505040E695001CCAF72BD0FE2F29D06A
:101C9000660F771F881FBB1F261737074807AB073C
:101CA000B0E809F0BB0B802DBF01FF2793585F4FB1
:101CB0003AF09E3F510578F00C941A0F0C94650F82
:101CC0005F3FE4F3983ED4F3869577956795B79593
:101CD000F7959F5FC9F7880F911D9695879597F99E
:101CE0000895E1E0660F771F881FBB1F6217730717
:101CF0008407BA0720F0621B730B840BBA0BEE1F2C
:101D000088F7E09508950E948A0E6894B1110C94AA
:101D1000650F08950E944A0F88F09F5798F0B92FD9
:101D20009927B751B0F0E1F0660F771F881F991F10
:101D30001AF0BA95C9F714C0B13091F00E94640F3F
:101D4000B1E008950C94640F672F782F8827B85F4F
:101D500039F0B93FCCF3869577956795B395D9F768
:101D60003EF490958095709561957F4F8F4F9F4F72
:101D70000895E89409C097FB3EF49095809570957E
:101D800061957F4F8F4F9F4F9923A9F0F92F96E9C7
:101D9000BB279395F695879577956795B795F1113C
:101DA000F8CFFAF4BB0F11F460FF1BC06F5F7F4FD9
:101DB0008F4F9F4F16C0882311F096E911C07723EB
:101DC00021F09EE8872F762F05C0662371F096E8F4
:101DD000862F70E060E02AF09A95660F771F881FC3
:101DE000DAF7880F9695879597F90895990F000867
:101DF000550FAA0BE0E8FEEF16161706E807F907DD
:101E0000C0F012161306E407F50798F0621B730B77
:101E1000840B950B39F40A2661F0232B242B252BF8
:101E200021F408950A2609F4A140A6958FEF811D9B
:101E3000811D089597F99F6780E870E060E008953C
:101E40009FEF80EC089500240A94161617061806D2
:101E50000906089500240A941216130614060506AE
:101E60000895092E0394000C11F4882352F0BB0F3F
:101E700040F4BF2B11F460FF04C06F5F7F4F8F4FA2
:101E80009F4F089557FD9058440F551F59F05F3FDD
:101E900071F04795880F97FB991F61F09F3F79F08C
:101EA00087950895121613061406551FF2CF46950E
:101EB000F1DF08C0161617061806991FF1CF869590
:101EC0007105610508940895E894BB276627772774
:101ED000CB0197F908950E94F60E08F48FEF08954C
:101EE0000E94830F0C94310F0E94230F38F00E9440
:101EF0002A0F20F0952311F00C941A0F0C94200F48
:101F000011240C94650F0E94420F70F3959FC1F34A
:101F1000950F50E0551F629FF001729FBB27F00D97
:101F2000B11D639FAA27F00DB11DAA1F649F6627EC
:101F3000B00DA11D661F829F2227B00DA11D621F3B
:101F4000739FB00DA11D621F839FA00D611D221FF5
:101F5000749F3327A00D611D231F849F600D211DD9
:101F6000822F762F6A2F11249F5750409AF0F1F05C
:101F700088234AF0EE0FFF1FBB1F661F771F881FC5
:101F800091505040A9F79E3F510580F00C941A0FD4
:101F90000C94650F5F3FE4F3983ED4F386957795F4
:101FA0006795B795F795E7959F5FC1F7FE2B880F6B
:101FB000911D9695879597F908950E94F60E880BC6
:101FC000990B0895DB018F939F930E945B0DBF9146
:101FD000AF91A29F800D911DA39F900DB29F900D78
:101FE00011240895EE0FFF1F0590F491E02D099440
:101FF0000E94900DB7FF0895821B930B0895F894EB
:02200000FFCF10
:10200200000000006903C902F602B60327030503B4
:102012001903000000002E05C902D703D6030D0ADA
:10202200006E616E00696E66006F76660041434322
:102032004944454E5420444554454354494F4E006B
:1020420053595354454D0056656869636C65205376
:10205200746172746564004163636964656E7420BF
:102062004465746563746564210053656E64696ECA
:1020720067204D73672E2E2E0041542B434D474649
:102082003D310041542B434D47533D222B393138CA
:10209200373039353836323433220D004143434923
:1020A20044454E5420444554454354454421005030
:1020B2006C6561736520636865636B207468652075
:1020C2006C6F636174696F6E20696D6D65646961BF
:1020D20074656C792E0047657474696E6720475089
:1020E2005320436F6F7264730053656E64696E6749
:1020F2002E2E2E004750524D430047504747410075
:102102002D2D2D2047505320506F736974696F6EC7
:10211200202D2D2D004C617469747564653A200080
:102122004C6F6E6769747564653A20002D2D2D2DF4
:102132002D2D2D2D2D2D2D2D2D2D2D2D2D2D2D2DCD
:0221420000009B
:00000001FF
